:020000040800F2
:10000000000A0020C9000008111A00089D17000806
:1000100000000000000000000000000000000000E0
:10002000000000000000000000000000731A00083B
:100030000000000000000000131A0008751A0008F4
:10004000DB00000800000000DB000008DB00000807
:10005000DB000008DB000008DB000008DB00000814
:1000600000000000DB000008DB000008DB000008E7
:10007000DB000008FD1A0008DB000008000000009B
:10008000DB0000080000000000000000DB000008AA
:1000900000000000DB000008DB000008DB000008B7
:1000A00000000000DB0000080000000059220008EA
:1000B0000448854600F090F800480047D128000821
:1000C000C046C046000A0020044880470448004754
:1000D000FEE7FEE7FEE7FEE7FEE7FEE7F91A0008A7
:1000E000B100000830B50B46014600202022012453
:1000F00009E00D46D5409D4205D31D469540491B5C
:100100002546954040191546521E002DF1DC30BDA4
:10011000F0B51FB40646002082B005464024019188
:1001200000901BE0019922460F46304600F020F86F
:10013000049A059B801A994110D31046194622460D
:1001400000F039F8361A8F4101972246012000212C
:10015000009F00F030F838184D4100902046641E92
:100160000028DFDC019B00982946324607B0F0BD2D
:1001700010B5202A04DB0846203AD040002110BDEB
:100180000B46D340D0402024A21A91400843194680
:1001900010BDD2B201E00270401C491EFBD2704774
:1001A0000022F6E710B513460A4604461946FFF743
:1001B000F0FF204610BD10B5202A04DB0146203A8E
:1001C0009140002010BD914020239C1A0346E3403B
:1001D0001943904010BD0000064C0125064E05E075
:1001E000E36807CC2B430C3C98471034B442F7D358
:1001F000FFF762FF842E0008A42E000800B585B02A
:1002000020200090012001900320039009206946DE
:10021000C00600F0CDF805B000BDF8B500250926F0
:10022000F6062C4601272021304600F079F90028F7
:10023000F9D0282002F020FB2021304600F070F990
:1002400001280AD00720011B384688408543641CDA
:10025000E4B2082CE7D32846F8BD2021304600F050
:100260005FF90128F9D00720011B38468840C0B249
:100270000543ECE730B585B00446FFF7BFFF09251D
:10028000ED0600222021284600F04FF9122002F04E
:10029000E5FA01222021284600F047F91E2002F04D
:1002A000EBFA202000900020019002906946284639
:1002B00000F07EF82021284600F032F900282ED1E7
:1002C0002021284600F02CF90028F9D020212846CA
:1002D00000F026F90128F9D0FFF79FFF2070FFF703
:1002E0009CFF6070FFF799FFA070FFF796FFE0702A
:1002F000FFF793FF2071FFF781FF0122202128469D
:1003000000F013F920786178E2784018A178891814
:1003100040182179884202D1012005B030BD00206B
:10032000FBE772B6FEE730B5014620314B7800227C
:10033000022B04D0042383630A70012030BD0368BC
:100340001C680E25AC431C6003681C6864086400CC
:100350001C600123056C1C46C06BAC4044604B70B4
:100360000A70002030BD70B50024014620314A7863
:10037000022A03D004218163012416E00268136875
:100380000E25AB431360026813685B085B001360C3
:100390000122056C1346AB40C56B6B604A700022AE
:1003A0000A70416B002900D08847204670BD0000CC
:1003B000FCB500230124A1E027462A469F403A408D
:1003C00073D04D68012D05D0022D03D0112D01D021
:1003D000122D16D185680326AC465D00AE46AE40B0
:1003E0006546B543AC46CE687546AE4065462E437D
:1003F000866046680D79BE43ED06ED0F9D4035439E
:100400004560C6685F000325BD40AE46AE43354635
:100410008E68BE402E43C6604E68022E01D0122E5A
:1004200014D1DE08B60036180196366A5D07B44668
:10043000EE0E0F25B54000966646AE43B4460D69F4
:10044000009EB54066462E43019D2E6206687546A5
:10045000AE430D79AD07AD0FBD40354305604D6826
:10046000ED004AD5284DAE692643AE61AD699E08C0
:10047000ED07ED0F0095254DB6007519AC46AD683A
:100480009E07360F0F27B740BD430927FF06B84226
:1004900001D1002710E01E4FB84201D101270BE027
:1004A0001C4FB84202D1022706E026E01A4FB8429C
:1004B00001D1032700E00527B7402F436546AF6011
:1004C000164E35684F689543FF0300D515433560D8
:1004D00075684F689543BF0300D515437560B568CF
:1004E0004F689543FF0200D51543B560F5684F6826
:1004F0009543BF0200D51543F5605B1C0A6815469D
:10050000DA4000D058E7FCBD001002400000014076
:100510000004004800080048000C004800040140A6
:100520000069084000D001207047002A01D0816195
:100530007047816270470000014880687047000082
:100540003C00002002488168027889188160704769
:100550003C00002010B506480168102211430160DC
:10056000002000F007F800F027F8002010BD000080
:100570000020024070B504460D4D7D202978C00052
:10058000FFF7B0FD01460B480068FFF7ABFD00F038
:10059000EFFC002809D1042C07D200222146401E7E
:1005A00000F02AF800206C6070BD012070BD0000D2
:1005B0003C0000204800002008B50848816901225D
:1005C00011438161816911400091C26901040A43AC
:1005D000C261C0690840009008BD000000100240E0
:1005E000002805DBC106C90E0120884001490860CA
:1005F0007047000000E100E010B501F06FFE10BD93
:10060000F8B505460068354CC00352D5E0690026B0
:10061000C00007D4E16920040143E161E1690140C0
:10062000012600912E480168C90510D40168821581
:1006300011430160FFF780FF074604E0FFF77CFFEE
:10064000C01B642824D826480068C005F6D5206A57
:1006500003273F02384020D06968394081421CD0CE
:10066000206A226AB843012109040A432262226AED
:100670008A4322622062C0070FD0FFF75DFF00901F
:1006800008E0FFF759FF0099411A1648814201D945
:100690000320F8BD206A8007F3D5206A6968B84353
:1006A00008432062002E04D0E16901200007814345
:1006B000E1612878C00705D0206BA9688008800018
:1006C000084320632878800605D5206B10218843D5
:1006D000E968084320630020F8BD000000100240D4
:1006E0000070004088130000F8B50F46060059D08E
:1006F0003A4D2868C007C00FB84209D228684008A0
:100700004000384328602868C007C00FB84249D16C
:100710003068334C81070CD5400704D56068072149
:100720000902084360606068F0218843B1680843AB
:1007300060603078C00726D0706801280ED021682C
:1007400002280ED0890700292CDA616889088900FF
:1007500001436160FFF7F0FE00900DE0216889031E
:10076000F1E78901EFE7FFF7E7FE0099411A1D481D
:10077000814201D90320F8BD60680C2108407168EE
:1007800089008842EFD12868C007C00FB8420BD952
:10079000286840084000384328602868C007C00F18
:1007A000B84201D00120F8BD3078400706D5606816
:1007B000072109028843F1680843606000F028F8C7
:1007C0006168094A0906090F515CC8400749086079
:1007D0000020FFF7CFFE0020F8BD000000200240FF
:1007E0000010024088130000682E00084800002016
:1007F0000448054900684968044A4905490F515CA5
:10080000C84070474800002000100240782E0008C1
:1008100010B514A30FCB88B06C460FC415A30FCB33
:100820000FC4184A51680C200B4603401648042B8D
:1008300016D0082B14D18B021B0F6C46E45CD26AD5
:1008400004AB1207120F9A5CC90305D500231946A1
:10085000FFF75EFC214601E020460C4901F018FD3F
:1008600008B010BD02030405060708090A0B0C0DA9
:100870000E0F10100102030405060708090A0B0CED
:100880000D0E0F100010024000127A0000093D000A
:10089000FEB5040070D02078DC4DC0074AD06868EF
:1008A0000007800F012807D068680007800F022822
:1008B00009D16868C00306D5286880033AD5606806
:1008C0000028E7D036E06168012914D001208004B7
:1008D000002901D0052914D02A68012109048A437E
:1008E0002A602968814329606068002816D0FFF7D4
:1008F00023FE06460EE0286801210904084328600B
:10090000F2E7296801432960F5E7FFF715FE801B30
:1009100064286ED828688003F7D50BE0FFF70CFE3B
:10092000064604E0FFF708FE801B6428F1D828681B
:100930008003F7D420780126800700283CDA686815
:100940000007800F07D068680007800F022809D1D0
:100950006868C00306D42868800716D5E0680128B7
:100960000AD112E0E0680028286816D030432860D9
:10097000FFF7E2FD074605E043E1FFF7DDFDC01BA1
:100980000228C6D828688007F7D52868F821884348
:100990002169C900084328600EE040084000286033
:1009A000FFF7CAFD074604E0FFF7C6FDC01B02289B
:1009B000AFD828688007F7D42078000722D5E069EF
:1009C0000028686A0ED030436862FFF7B5FD07461D
:1009D00004E0FFF7B1FDC01B02289AD8686A8007BF
:1009E000F7D50FE0400840006862FFF7A5FD074615
:1009F00005E09DE0FFF7A0FDC01B022889D8686ACA
:100A00008007F7D4207804274007002860DA002008
:100A10000190E869C00008D4E969B8060143E961BA
:100A2000E969014001200091019079480168C905F8
:100A300011D40168821511430160FFF77DFD00901C
:100A400005E0FFF779FD0099401A642870D87048D6
:100A50000068C005F5D5A06801280AD0002801D09B
:100A6000052810D0286A400840002862286AB84348
:100A700001E0286A30432862A068002812D0FFF7FE
:100A80005BFD00900AE0286A38432862F1E7FFF72F
:100A900053FD0099411A5F48814249D8286A80076E
:100AA000F5D50DE0FFF748FD009006E0FFF744FDA7
:100AB0000099411A574881423AD8286A8007F5D4EC
:100AC0000198002804D0E969012000078143E96109
:100AD0002078C00635D5606901280CD0401D686BB0
:100AE00023D038436863686B400840006863FFF7B1
:100AF00023FD064622E0686B38436863686B304329
:100B00006863FFF719FD064604E0FFF715FD801B3B
:100B100002285BD8686B8007F7D5686BF82188439B
:100B2000A169C900084368630BE0B8436863F4E750
:100B30004CE0FFF701FD801B022847D8686B800757
:100B4000F7D4206A00285ED069680907890F022956
:100B500042D0012636060228286805D0B043286016
:100B6000FFF7EAFC044633E0B0432860FFF7E4FCFB
:100B7000074604E0FFF7E0FCC01B022826D82868DF
:100B80008001F7D4E86AE16A000900010843E862DD
:100B9000616AA06A084369683D22120491430843D0
:100BA0006860286830432860FFF7C6FC044604E00C
:100BB000FFF7C2FC001B022808D828688001F7D57F
:100BC00021E0FFF7B9FC001B022801D90320FEBD7C
:100BD00028688001F5D416E00128F8D06868E96A31
:100BE00001221204636A02409A420AD10907E26AAA
:100BF000090F914205D10F2189040840A16A88425A
:100C000001D00120FEBD0020FEBD0000001002400A
:100C1000007000408813000010B500680B46406863
:100C2000C021C94301400002000ECC04D870E40E7C
:100C30005C708C06A40E0904490F9C701970002A80
:100C40000AD100F0E7FED870587800F0E3FE587043
:100C5000987800F0DFFE9870002010BD30B50B468C
:100C60000168896A5960016809694904490C9960F9
:100C7000006804680F482146014088024D04800E38
:100C800018706D0E49065D70490E99706102490E2B
:100C900040242140D970002A0AD100F0BBFE187010
:100CA000587800F0B7FE5870987800F0B3FE98704E
:100CB000002030BD7F7F7F0070B5040003D0607FCF
:100CC000002802D006E0012070BD002020772046D9
:100CD00000F04CF8022060772168CA204862216841
:100CE00053204862204600F0A8FEFF250426002875
:100CF00024D1206881681C4A11408160216888687D
:100D000062686369104322691A431043886021684E
:100D1000E0680861206801692289120411430161B9
:100D20002068C16880229143C16020688068800685
:100D300008D4204600F0F6F8002803D02068456269
:100D40006677C0E72068016C012292049143016438
:100D50002068016CA269114301642068456201208A
:100D60006077002070BD0000BFFF8FFF006805495D
:100D7000884205D10448016A0122D203114301626D
:100D8000704700000028004000100240F8B50446FB
:100D9000007F0B4601280FD00120207702206077CA
:100DA000002A0BD0D8789D7800040543587809783C
:100DB00000024903084317E00220F8BD5878C10635
:100DC00003D5EF2108400A305870D87800F02AFE89
:100DD0000504587800F026FE00020543987800F0DC
:100DE00021FE05431878400305432168CA20486264
:100DF000216853204862204600F01FFE0026FF278E
:100E0000002811D10F480540206845602068C1685E
:100E100080229143C1602068806880060BD4204600
:100E200000F080F8002806D0206847620420607730
:100E300026770120F8BD2068476201206077267779
:100E40000020F8BD3FFFFF00F8B50446007F0D46C7
:100E5000012821D001202077022060772068002718
:100E60008068002A1AD0400600D4EF702878AE7847
:100E7000000406436878E978000209040843064341
:100E80002168CA204862216853204862204600F049
:100E9000D4FD002834D114E00220F8BD400600D46F
:100EA000EF70287800F0BEFD0604687800F0BAFD07
:100EB00000020643A87800F0B5FD0643E878000478
:100EC000DDE7174806402068066020688168012237
:100ED0009204914381602969E868084321688A681F
:100EE000104388602068C16880229143C1602068F7
:100EF000806880060CD4204600F014F8002807D043
:100F00002168FF2048620420607727770120F8BD20
:100F10002168FF2048620120607727770020F8BD14
:100F20007F7F7F0070B504460068C168A0229143AE
:100F3000C160FFF701FB7D260546F60006E0FFF7DE
:100F4000FBFA401BB04201D9032070BD2068C06885
:100F50008006F4D5002070BD0422044904280869E5
:100F600002D09043086170471043FBE700E000E0C7
:100F7000094910B5401E884201D9012010BD074C17
:100F800060610321081F01F0A9F90020A06107207A
:100F90002061002010BD0000FFFFFF0000E000E026
:100FA00070477047F0B502462032137F012B1BD0EB
:100FB000012616770223537705686B68AC687027A3
:100FC000BB430F681F436F600068084B984202D014
:100FD000074B984204D1802349689C432143816098
:100FE000567700201077F0BD0220F0BD002C0140A4
:100FF0000004004070B5040005D025462035687F08
:10100000002802D006E0012070BD0020287720468D
:1010100000F014F802206877211D206800F076FDAA
:1010200001204034A071A877E87720706070A0702C
:10103000E070207160716877002070BD08B50068AD
:10104000094988420FD109488269C1140A43826163
:10105000806900220840009011460D20FFF7CCFA6D
:101060000D20FFF7BDFA08BD002C01400010024022
:10107000014620314A7F012A01D001207047022217
:101080004A770268D36801210B43D3600068084A9D
:10109000904202D0074A904204D182685207520F10
:1010A000062A02D002680A4302600020704700004E
:1010B000002C014000040040F8B5054604462035E8
:1010C000287F012817D001262E7702206877226812
:1010D00090687727FF23B8431B02984390600A6803
:1010E000502A31D00EDC202A4BD006DC002A48D012
:1010F000102A3AD145E00220F8BD302A41D0402ADA
:1011000033D136E0602A27D0702A12D001200003A4
:10111000121A2AD0824228D1CB684A68896820688E
:1011200000F030FD20688168012292031143816044
:101130001BE0CB684A688968206800F023FD2168BD
:1011400088683843886010E0CA684968206800F001
:101150002CFD5021206806E0CA684968206800F02C
:1011600035FD6021206800F018FD6E77002028779B
:10117000F8BDCA684968206800F017FD4021206862
:10118000F1E711462068EEE7704770B50446006845
:1011900001690025C9438907002915DBC168C943D6
:1011A000890711D4E91E0161012020772068806938
:1011B0008007204602D0FFF7E7FF04E000F096F832
:1011C000204600F094F8257720680169C943490753
:1011D00017D4C168C943490713D40421C943016125
:1011E00002202077206880698005800F204602D089
:1011F000FFF7CAFF04E000F079F8204600F077F826
:10120000257720680169C943090716D4C168C94315
:10121000090712D40821C9430161042020772068FE
:10122000C0698007204602D0FFF7AEFF04E000F05F
:101230005DF8204600F05BF8257720680169C94316
:10124000C90617D4C168C943C90613D41021C943BC
:101250000161082020772068C0698005800F204642
:1012600002D0FFF791FF04E000F040F8204600F0C4
:101270003EF8257720680169C943C90708D1C168CC
:10128000C943C90704D1891E0161204600F030F826
:1012900020680169C943090609D4C168C943090620
:1012A00005D48021C94301612046FFF779FE2068FB
:1012B0000169C943490609D4C168C943490605D42F
:1012C0004021C9430161204600F020F820680169EF
:1012D000C943890609D4C168C943890605D42021B8
:1012E000C94301612046FFF75CFE70BD704770473F
:1012F00000680449884203D103484168491C4160A1
:1013000070470000002C0140040000207047704727
:1013100070470000F8B502680446D0691168966805
:101320007B4B05461D402023002D6CD0F707794DDF
:10133000FF0FBC460D402F4379D02546C7078035A7
:10134000002F06D0CF0504D5012717622A683A433B
:101350002A60820708D5F20706D0276802223A627F
:101360002A6804273A432A60420708D5F20706D0C4
:101370002668042232622A68022632432A60020763
:101380000AD50A461A406646324305D02668082226
:1013900032622E6816432E60020508D54A0106D532
:1013A00001222668D20232622A681A432A602A6819
:1013B000002A30D0800606D5880604D5616E002943
:1013C00001D020468847286821688968490602D4E8
:1013D0002821084225D0204600F090FD2068816831
:1013E000490619D5826840218A438260206F00280F
:1013F00012D049494163206FFEF7B5FF00280AD09B
:10140000206F416B06E0850611D58D060FD5616E04
:101410006BE020468847F8BD2046FFF779FFF8BD0E
:1014200005E02046FFF774FF00202860F7E7256EEF
:10143000012D55D1C50653D5CD0651D510261662BE
:1014400020688168254649064035002929DA226F3F
:10145000116849680904090CE1D02F8B8F42DED94D
:1014600069839169202917D0016832019143016095
:1014700020688168490849008160206882684021AD
:101480008A438260E3670020206620680168B143D8
:101490000160206FFEF747FF288B698B401A81B2ED
:1014A0001AE0298B6A8B891A6A8B89B2002AB6D016
:1014B0000029B4D00268FF252135AA4302602068C4
:1014C0008268520852008260E367002020666066EE
:1014D00020680268B24302602046FFF718FF9EE7CB
:1014E000050605D50D0603D5A16E002991D196E715
:1014F000400694D5480692D52046146840218C4376
:10150000146083670021816600F047F987E70000D7
:101510000F08000020010004E91E000810B50400B7
:1015200003D0A06F002802D007E0012010BD0021E9
:1015300074200155204600F027F82420A067206879
:101540000168490849000160204600F067FD012854
:10155000ECD0606A002802D0204600F02DFC206804
:1015600041680122D20291434160206881680822CB
:101570009143816020680168012211430160204687
:1015800000F080FC10BD000010B586B004461421A8
:101590006846FEF705FE16492068884226D11548A0
:1015A0008269012189030A43826182690A400592A6
:1015B0004269C9000A4342614069084005900C2015
:1015C000009002200190002002900320039001204F
:1015D000049009206946C006FEF7EAFE00220121B8
:1015E0001B20FFF709F81B20FEF7FAFF06B010BD1D
:1015F000003801400010024030B5C36F202B24D1C9
:1016000000290BD0002A09D0012483682403A342B7
:1016100006D10369002B03D1CB0701D0012030BDD7
:10162000034660331C7D012C0FD001241C75002360
:10163000036603685C68240204D51C680125AD06B6
:101640002C431C6000F078FD30BD022030BD00004E
:1016500070B50546184C194863782A680168032B51
:101660000BD08A4202D1A07801F03AFB1249012244
:10167000891C2846FFF7C0FF70BD8A42FCD1606814
:101680006061A069401CA061216A491C21620C496B
:10169000884201D10B48A06101220848A169FFF7E7
:1016A000ABFF0028F8D1A0692038C07F0A28E3D119
:1016B0000120E06170BD0000040000200C05002046
:1016C0007C0400207C000020FFB50446806F83B0BE
:1016D00017460D4620285ED1002D0AD0002F08D0D5
:1016E000A168C001814207D12069002804D1E80720
:1016F00002D0012007B0F0BD204660300090007D90
:10170000012848D00098012101750020802108514E
:101710002120A067FEF710FF264640360190378251
:1017200077820120A1680003814202D1206900284C
:1017300005D02F46002500990020087511E00027EC
:10174000F9E700228021204600F036FD002815D15F
:10175000002F15D02168387808857F1C708A401EBC
:101760007082708A019B002806980090E9D10022BF
:101770004021204600F020FD002808D00320B9E7D2
:1017800028882168C005C00D0885AD1CE6E720202B
:10179000A0670020AEE70220ACE77047FEE700003C
:1017A00070B5092501261D4CED06012815D02078BD
:1017B00000280BD001212846FEF7B2FE00280ED0EB
:1017C00002212846FEF7ACFE002808D00121284659
:1017D000FEF7A6FE012818D01EE02670EAE70A20D0
:1017E00001F03CF80020207001212846FEF798FE09
:1017F000002806D002212846FEF792FE002802D0DB
:101800000AE0012070BD022070BD02212846FEF7CB
:1018100087FE012800D12670002070BD67000020DF
:10182000F0B587B014216846FEF7BAFC2C4842692F
:10183000012189050A43426142690A4005924269D1
:1018400049110A43426142690A40059242694900CE
:101850000A434261406909270840FF0605900022BB
:10186000D0213846FEF761FE012220213846FEF7DE
:101870005CFE002202211B48FEF757FE03260024CF
:10188000012569463846009602950194FEF790FDC1
:101890001020009069460396019502943846FEF7A1
:1018A00087FD202000901120019002946946039446
:1018B0003846FEF77DFDC0200090029469460195F0
:1018C00003943846FEF774FD0220009002946946A6
:1018D000019503940348FEF76BFD07B0F0BD0000CF
:1018E000001002400004004810B586B0142168467C
:1018F000FEF756FC002419491948059412C07C21B2
:1019000001608460C4601749046141600838FFF7D2
:10191000D3F9002801D0FEF704FD68460470447036
:1019200084700394012269460D480494FFF78CFAF1
:10193000002801D0FEF7F5FC0120694608754875BE
:101940008875CC75024605A90548FFF71FFA0028DF
:1019500001D0FEF7E6FC06B010BD000000280040F4
:10196000A4040020CF07000010B586B00024009426
:101970001748019402940394049414490594016057
:10198000FF21E03184604160046144611149846158
:10199000C160FFF72FFB002801D0FEF7C2FC012039
:1019A0000003009069460A48FFF786FB002801D033
:1019B000FEF7B7FC049404A905480594FFF7F2FA72
:1019C000002801D0FEF7ADFC06B010BD002C014090
:1019D000C4040020E703000010B50C480A49016068
:1019E000E1214902416000218160C16001618161A2
:1019F000C1610C22016242614162FFF78FFD002844
:101A000001D0FEF78EFC10BD003801400C0500200F
:101A1000FEE7704701090A2200075143000F4018F2
:101A2000C0B27047002102E00A38C0B2491C0A283F
:101A3000FAD20907090E0843704770B504460068DA
:101A4000C168490613D40021C943C160FEF774FD83
:101A50007D260546F60006E0FEF76EFD401BB0420F
:101A600001D9032070BD2068C0684006F4D500206D
:101A700070BD704710B5FEF765FD10BD30B595B06F
:101A800030216846FEF78CFB0024012010940F944F
:101A900001900E9400901394000409900D9400019D
:101AA0000C94129402250A90119408950B946846A0
:101AB000FEF7EEFE002801D072B6FEE707200C907C
:101AC0000E9401210D950F940CA8FEF70DFE002831
:101AD00001D072B6FEE70748109003200002119073
:101AE000129410A8FEF78CFD002801D072B6FEE714
:101AF00015B030BD010001007047000010B502486C
:101B0000FFF743FB10BD0000C404002070B502685D
:101B1000174B184E984201D0B04203D17024A24313
:101B20004C682243144C154D984208D0B04206D060
:101B3000134EB04203D0A04201D0A84204D10326E4
:101B40003602B243CE6832438026B2434E693243F6
:101B500002608A68C2620A688262984203D0A04228
:101B600001D0A84201D1096901630121416170BD21
:101B7000002C0140000400400044014000480140A6
:101B80000020004030B58468FF252D021B0213435E
:101B9000AC430B432343836030BD826870239A4378
:101BA0000A4307210A438260704730B5036A046A1A
:101BB0006408640004628469F025AC431201224386
:101BC0000A24A3430B438261036230BD30B5036A2C
:101BD0001024A34303628469036A0F252D031203B3
:101BE000AC432243A024A34309011943826101624B
:101BF00030BD10B500F002F8002010BD10B5002077
:101C0000094954220A54401C0628FBDB064800F010
:101C10000DF87D20C00000F021FE002001F052F8F8
:101C2000014800F003F810BD4C000020FEB5074647
:101C30002E48802600786C46002812D003281DD03C
:101C40000025785D00F03CFD60556D1C062DF8DB2D
:101C5000002069468870C87025480078002820D088
:101C600023E00025785D00F02BFD60556D1C062DEE
:101C7000F8DB68464178314341700EE00025785D1D
:101C800000F01EFD60556D1C062DF8DB684641789E
:101C90003143417081783143817001793143017161
:101CA000DAE769464879304348710221002000F0A4
:101CB00021F80021012000F01DF80021032000F090
:101CC00019F80025605D00F053F8002000F050F88E
:101CD0006D1C062DF6DB092001228021C006FEF7CF
:101CE00024FC0121022000F005F8FEBD05000020C3
:101CF0000400002070B50D4601001C4811D06C078F
:101D0000640F01291AD0022920D0032908D100220A
:101D10008021FEF70AFC2807000FC03000F028F8E9
:101D200070BD002280210446FEF7FFFBA807800F4C
:101D300000F01EF801228021204613E000228021BD
:101D40000546FEF7F2FB2046403006E000228021E7
:101D50000546FEF7EAFB2046883000F009F801222C
:101D600080212846FEF7E1FB70BD0000000000481E
:101D7000F8B5002409270F4E0546FF060022022170
:101D80003046FEF7D2FBE80701D0012200E0002236
:101D900040213846FEF7C9FB6D08052000F06CFDB8
:101DA000012202213046FEF7C0FB641C082CE5DB53
:101DB0000020F8BD0004004810B5818CC90707D089
:101DC00001684A6801235B049A43836A1A434A60A4
:101DD000818C890707D501684A6801231B049A434F
:101DE000C36A1A434A60818C490707D501684A686B
:101DF00001239B049A43036B1A434A60818C0907B1
:101E000007D501684A680123DB039A43436B1A43F1
:101E10004A60818CC90607D50268916801231B03BB
:101E20009943836B19439160818C890607D50168BA
:101E30008A6801235B039A43C36B1A438A60818CCF
:101E4000490612D503685A6801210905046C8A43C2
:101E500022435A60026C8A4207D102685168032308
:101E60005B059943436C19435160818C090607D582
:101E700001684A680123DB04806C9A4302434A608C
:101E800010BD0000F8B50446002680300660FEF75D
:101E900053FB054620680068124F000709D5012151
:101EA0002B46002249052046009700F085F90028BE
:101EB0000DD12068006840070BD501212B46002278
:101EC00089052046009700F077F9002801D003200B
:101ED000F8BD2020A067E0672666603426750020E4
:101EE000F8BD0000FFFFFF0110B5406A0022014667
:101EF00040314A834A82FFF70BFA10BD01680A6835
:101F0000FF2321339A430A6001688A68520852000D
:101F10008A60016E012904D101680A6810239A437E
:101F20000A602021C167002101664166704770B5D3
:101F300004464030828BE36F2168222B04D08869ED
:101F400008221043886170BD898C636D114019802F
:101F5000616D891C6165418B491E4183418B00295C
:101F6000F1D121680A68FF2321339A430A6021686E
:101F70008A68520852008A602021E1670025656660
:101F8000216E012904D02046FFF762FB256670BD53
:101F900021680A6810239A430A60018B2046FFF7E4
:101FA000B6F9F3E770B504464030828BE36F2168E1
:101FB000222B04D0886908221043886170BD898C67
:101FC0001140626D1170616D491C6165418B491E44
:101FD0004183418B0029F1D121680A68FF23213315
:101FE0009A430A6021688A68520852008A60202158
:101FF000E16700256566216E012904D02046FFF7C0
:1020000027FB256670BD21680A6810239A430A6081
:10201000018B2046FFF77BF9F3E7000070B504461B
:1020200080682169E269084361690025114308431A
:1020300021680A683C4B1A4002430A6021684868DC
:10204000032212039043E26810434860A169206AAA
:10205000084321688A680B231B029A4302438A6063
:102060003248006B8007800F16D0012818D0022854
:1020700018D0032812D010210120E369C0032C4A94
:102080002C4E83422BD100290ED002290FD00429D7
:102090000FD008293FD110E00021EDE70221EBE746
:1020A0000421E9E70821E7E7FEF7A2FB03E0104679
:1020B00003E0FEF7ADFB002831D0616840004A081C
:1020C0008018FEF70FF880B201461039B14222D8CD
:1020D0001849491C01400007400F08431DE0002932
:1020E00006D0022907D0042907D0082913D108E017
:1020F000FEF77EFB03E0104603E0FEF789FB0028B5
:102100000DD061684A081018FDF7ECFF80B2014657
:102110001039B14201D9012501E02168C8600020D1
:102120006066A066284670BDF369FFFF001002409C
:1021300000127A00EFFF000030B5416501464031E2
:102140000A834A8300224266012385681B03FF2419
:102150009D4204D10569002D23D1144C21E0002DAE
:102160001BD08A8380210A502221C16701688C68B4
:1021700001252C438C608168994202D101690029B4
:1021800011D00B49416674210A5400680168FF228E
:10219000213211430160002030BD0569002D00D0BF
:1021A0007F248C83DEE70349ECE70000FF01000099
:1021B000A51F00082F1F0008FFB581B005460F4678
:1021C000044660350A9E39E0701C37D0FEF7B4F93A
:1021D0000499401AB04222D8002E20D0206801680D
:1021E00049072BD5C069C043000527D401202168C9
:1021F000C002086220680168FF22A1329143016099
:10220000206881684908490081602020A067E06754
:102210008034206000202875032005B0F0BD2068C0
:102220000168FF22A132914301602068816849085A
:10223000490081602020A067E067EBE72068C16962
:102240003846884305D0002103988142BCD0002045
:10225000E3E70121F8E7000010B50248FFF75AF85C
:1022600010BD00000C0500200FB410B504A9074BE9
:1022700002AA039800F064F8044602A9002000F0C6
:1022800007FA204610BC08BC04B018479126000885
:10229000F8B5040C8BB2264682B25E430D0C104694
:1022A000370C5843360480190021794116466E4395
:1022B000370C36048019794126466E438919F8BDDA
:1022C00030B47446641E2578641CAB4200D21D46AF
:1022D000635D5B00E31830BC184700008307FF22F2
:1022E000DB0E9A408907090E9940002808DB830815
:1022F00009489B001B1818689043084318607047F2
:102300000007000F0838830804489B001B18D86991
:1023100090430843D861704700E400E000ED00E01E
:1023200002E008C8121F08C1002AFAD1704770479E
:10233000002001E001C1121F002AFBD170470000FC
:10234000FFB58FB00546002606E025280AD0129A70
:10235000119990476D1C761C28780028F5D13046DD
:1023600013B0F0BD002402940121B54A009400E0AE
:1023700004436D1C2B780846203B98401042F7D14F
:1023800028782A280ED002222878014630390929D7
:1023900016D802990A2359433039401814436D1C4A
:1023A0000290F1E7109802C802911090002904DA17
:1023B00001204003044348420290022004436D1C64
:1023C00028782E2817D10420044368786D1C2A2809
:1023D0000CD110986D1C02C8009110900BE0009970
:1023E0000A225143303940186D1C0090287801466C
:1023F00030390929F3D928786C2810D006DC4C280C
:102400001AD068280ED06A2817D104E0742813D097
:102410007A2812D110E00120400504430CE001218C
:10242000090501E0032109050C436978814203D1C4
:102430000120000524186D1C6D1C2878692874D0B3
:1024400006DC00288BD0632827D0642806D16CE0F6
:102450006E2808D073282CD0752878D0129A11993C
:102460009047761C5FE06002400F022809D00328E5
:102470000DD00428109801680DD00E60001D10903A
:1024800051E01098F21701680E604A60F6E7109864
:1024900001680E80F2E70E70F0E710986A46017846
:1024A0001173001D10900020507303A801900120AB
:1024B00005E0109802C8019110900020C043610708
:1024C0000CD5002700E07F1C00998F420FDA87426D
:1024D000F9DB0199C95D0029F5D108E0002700E08A
:1024E0007F1C8742FCDB0199C95D0029F8D1029865
:1024F0002146C01B0290129B119A00F0B3F880197C
:10250000C61907E0019801990078491C0191129AB7
:10251000119990477F1EF5D22146129B119A02987D
:1025200000F090F886196D1C16E70A2001901099AA
:1025300001C910916102490F032900D100B2042999
:1025400000D140B2002803DA40422D2103E00DE023
:10255000210504D52B216A461173012103E0E1070F
:1025600011D02021F7E70CAF0C9114E00A20019064
:10257000109901C910916102490F032900D180B25D
:10258000042900D1C0B20021EDE70199FDF7AAFDB1
:1025900030317F1E39700028F7D104A8C01B2030CD
:1025A0000190600704D5012000048443009801E0F5
:1025B000012000900199884201DD401A00E00020CE
:1025C000411800900C9809180298401A0290E003F4
:1025D00006D42146129B119A029800F043F88619FE
:1025E00000200D9008E003A9085C129A1199904709
:1025F0000D98401C761C0D900C998842F3DBE0038B
:102600000CD52146129B119A029800F02BF88619DE
:1026100004E0129A302011999047761C0099481EC8
:1026200000900029F5DC05E03878129A7F1C11999A
:102630009047761C0199481E01900029F4DC6BE755
:1026400009280100F8B5044600251E4617468804EF
:1026500004D405E039462020B0476D1C641EF9D52E
:102660002846F8BDFFB50446002581B01E46C803C4
:1026700001D5302700E02027880404D505E038463E
:102680000399B0476D1C641EF9D5284605B0F0BD0E
:102690000A68531C0B6010707047000010B5074C9F
:1026A000A078E1784118012000F0E4F92078617801
:1026B0004118022000F0DEF910BD00002C000020BF
:1026C00010B5134A044613180021303C403B092C36
:1026D00001D8197C19E00446413C052C01D8597AEF
:1026E00013E0502808D0552808D0482808D04C2896
:1026F00008D0542808D008E0117C06E0517C04E0A2
:10270000917C02E0D17C00E0117D084610BD000004
:1027100052000020F1B586B0484906980C18E078C0
:102720000126474D05283CD006DC0300FFF7C8FD15
:102730000517282B2F370D000C2876D007DC06282C
:1027400031D0082801D1FFF7A9FF07B0F0BD0E284E
:102750006FD01C28F9D1A01D00F0D4F9F5E7297835
:102760000020002906D0012100F090FAC2B2032116
:10277000002011E0002100F089FAC2B22E70F6E7C5
:1027800000F012FAE1E700220321022004E0A07920
:10279000E87003210022084600F036FBD5E76E7092
:1027A000D3E7AE70D1E720790702607907430026AE
:1027B00036E00698811921480918087A497A0002FA
:1027C000081880B2A5190390A8790090E8790290C2
:1027D000287A697A0002081880B204900098AD1D2A
:1027E000019000F072F80146002007E0154A43000E
:1027F000D35C019A934203D0401CC0B28842F5D307
:1028000041001048081841780298814204D1291DDE
:10281000049A009800F04AF803983018001D86B218
:10282000BE42C6D391E700E003E0A01D00F04CF9E2
:102830008BE7A079E17900F091FA86E79005002016
:102840006C000020802E000810B504460420FEF71E
:1028500083FB0148046010BD0000002070B5002417
:102860007D260546F60003E0304600F005F8641CBE
:10287000AC42F9D370BD000070B50A4C0023656905
:102880000949A26909684843A1699142FCD0914273
:1028900001D2521A01E06E1AB218D3180A468342C6
:1028A000F2D370BD00E000E0000000207047034656
:1028B00010B50020024605E01C78521C2018C0B25A
:1028C00092B25B1C8A42F7D310BD02207047000011
:1028D0001CB5FDF73FFEFFF7D1F8FEF7A1FFFFF7AC
:1028E0007BF8FFF701F8FFF73FF800F021FA01222B
:1028F00052495348FEF780FE3020FFF7A5FFFFF74F
:1029000078F9092001221021C006FDF70EFE4D487E
:10291000FEF7AEFB494D002626352C46283C00F03C
:102920001FFA00F0D9F8042801D0267001E0012038
:1029300020700020FEF734FF012802D002280BD1BE
:1029400003E0002000F0CEF806E06078401CC0B242
:102950006070042800D366706168A068091A642951
:1029600001D2002814D135482630FDF783FC2078A9
:1029700001280BD1A8780A214843E97841180120A1
:1029800000F078F82978022000F074F86068A06000
:10299000207801280BD16168E0682B4A091A91421E
:1029A00001D2002803D100F090F86068E06061680F
:1029B0002069091A642901D20028B0D100222349D4
:1029C0002348FEF74BF91D49002222312048FEF72B
:1029D00023F96078002801D003280AD16978287883
:1029E000009001911548EB78AA781AA12B30FFF7D7
:1029F0003BFC607801280CD11448002340780190FA
:102A000012480096143802780C4816A12B30FFF7B4
:102A10002BFC607802280AD10848002322308178F4
:102A20000191009642780FA10930FFF71DFC034881
:102A30002B30FFF7FBF86068206170E7060000208C
:102A40000C050020C4040020B80B000090040020F6
:102A5000A4040020253264253164253264253164C4
:102A6000000000002532642531642531642532647C
:102A70000000000010B5134A0C46014612780020F1
:102A8000012A1DD000F002F9022100F0FFF8002118
:102A900000F0FCF8042100F0F9F8210E00F0F6F83F
:102AA0002102090E00F0F2F82104090E00F0EEF800
:102AB000E1B200F0EBF802460321072000F0A4F990
:102AC000012010BD78000020704710B500220321BE
:102AD0001C2000F099F910BD0148007870470000F3
:102AE0006F00002010B50146054A0020107000F06C
:102AF000CDF8C2B20321052000F086F910BD000018
:102B00006E00002010B50178012919D10D494278D5
:102B1000CA7082784A70C2788A70C2790A700A498B
:102B200002790A7042794A708079887000220549DA
:102B30000648FEF72BF9002203490448FEF784F902
:102B400010BD0000370000207C040020A4040020F9
:102B500030B5002808D0002906D0884202D98C1848
:102B6000844212D2002305E0002030BDCD5CC55464
:102B70005B1C9BB29342F9D330BD8B18203BDC7FAA
:102B80008318203B521EDC7792B2002AF5D130BD6B
:102B90000021002806D000E0491C0278401C002AD1
:102BA000FAD108467047000010B5002421A0FFF7B5
:102BB000EFFF82B21FA1204600F05AF8C4B21FA056
:102BC000FFF7E6FF82B21DA1204600F051F8C4B223
:102BD0001FA0FFF7DDFF82B21DA1204600F048F8DC
:102BE000C4B21DA0FFF7D4FF82B21BA1204600F0A3
:102BF0003FF8C4B21AA0FFF7CBFF82B218A120465B
:102C000000F036F8C4B218A0FFF7C2FF82B216A1D6
:102C1000204600F02DF8C4B214A0FFF7B9FF82B22D
:102C200012A1204600F024F8C2B20321012000F0D6
:102C3000EBF810BD7B2270223A2200007935616CDE
:102C4000363534786D79616C386B62730000000042
:102C5000222C2276223A2200312E302E3000000023
:102C6000222C226D223A0000320000007D0000007C
:102C700070B50446044815460019801DFFF768FF2B
:102C8000601980B270BD0000C6050020024A12180B
:102C9000401C917180B27047C605002007494B68FF
:102CA0008A689A4208D00648824201D31738886061
:102CB0008A681078521C8A60704700006C000020FF
:102CC000C605002070B5054D05240A21FDF70AFA56
:102CD00030312955641EF8D570BD00004C0000202D
:102CE00010B50B490B680B490A689C1A012C0DD0D2
:102CF0009A4202D9D31A172B08D2074B9A4202D311
:102D00001A46173A0A601070521C0A6010BD000083
:102D10007400002070000020C605002001B5FF23CC
:102D2000012269460148FEF7CFFC08BD0C050020D2
:102D300006490548086006490860064900200870F1
:102D40000549FF2008707047AF0500207000002083
:102D500074000020780000206F0000207047000001
:102D6000F8B50024264E274D06E0FFF797FF0146F1
:102D700028883154401C288028881F2803D200F05E
:102D800067F80028F1D12888072838D329E0315D79
:102D9000552901D0641C07E032195178AA29F9D1CC
:102DA0009178002902D0A41CA4B21AE011795379B9
:102DB0000902C91D59188FB2262F0CD8B84214DB4E
:102DC000781E81B21046FFF772FDE719B919203954
:102DD000C97F884201D0E41CE6E72046FFF79AFC51
:102DE000BCB22888001B0728D1DA2888001B0204FF
:102DF000120C2A8003D031190148FFF7A9FEF8BD53
:102E0000900500206800002070B5104D55232B70F0
:102E1000AA236B70A970E870100A28716A71D21D1C
:102E200094B2601E81B22846FFF741FD291920396E
:102E3000C877002C09D003E02878FFF76FFF6D1CDE
:102E40002046641EA4B20028F6D170BDC60500203D
:102E5000044841688068814201D001207047002009
:102E6000704700006C00002000000000000000001F
:102E70000102030406070809000000000102030420
:102E800001020202A42E0008000000207C000000C5
:102E900020230008202F00087C0000208409000067
:102EA00030230008000000000000000000000000C7
:102EB0000000000000000000000000000000000012
:102EC0007C00002000000000000000000000000066
:102ED00000000000003031323334350000000000C3
:102EE00001000000040000000000000000127A0051
:102EF0000000000000003F065B4F666D7D077F6F9E
:102F0000777C395E7971733E7638FF0100000000EE
:102F100000000000000000000000000000000000B1
:04000005080000B13E
:00000001FF
