:020000040800F2
:10000000000A0020C9000008ED110008FD100008DA
:1000100000000000000000000000000000000000E0
:100020000000000000000000000000002D14000887
:100030000000000000000000EF1100082F1400086D
:10004000DB00000800000000DB000008DB00000807
:10005000DB000008DB000008DB000008DB00000814
:1000600000000000DB000008DB000008DB000008E7
:10007000DB000008DB000008DB00000800000000D7
:10008000DB0000080000000000000000DB000008AA
:1000900000000000DB000008DB000008DB000008B7
:1000A00000000000DB00000800000000211B000829
:1000B0000448854600F0BEF8004800477124000857
:1000C000C046C046000A0020044880470448004754
:1000D000FEE7FEE7FEE7FEE7FEE7FEE7A7140008FF
:1000E000B100000830B50B46014600202022012453
:1000F00009E00D46D5409D4205D31D469540491B5C
:100100002546954040191546521E002DF1DC30BDA4
:1001100070B500242546002801DA01244042002958
:1001200001DA01254942FFF7DDFFAC4200D0404231
:10013000002C00D0494270BDF0B51FB40646002027
:1001400082B005464024019100901BE001992246AF
:100150000F46304600F020F8049A059B801A99411A
:1001600010D310461946224600F054F8361A8F4133
:100170000197224601200021009F00F04BF838181B
:100180004D4100902046641E0028DFDC019B009852
:100190002946324607B0F0BD10B5202A04DB0846D8
:1001A000203AD040002110BD0B46D340D04020243F
:1001B000A21A91400843194610BD03460B439B0702
:1001C00003D009E008C9121F08C0042AFAD203E0CC
:1001D0000B780370401C491C521EF9D27047D2B2F2
:1001E00001E00270401C491EFBD270470022F6E776
:1001F00010B513460A4604461946FFF7F0FF20469D
:1002000010BD03460A780270401C491C002AF9D12F
:100210001846704710B5202A04DB0146203A914069
:10022000002010BD914020239C1A0346E34019434F
:10023000904010BD064C0125064E05E0E36807CC52
:100240002B430C3C98471034B442F7D3FFF734FFEC
:10025000B4280008D428000800B585B020200090FC
:10026000012001900320039009206946C00600F098
:10027000CDF805B000BDF8B500250926F6062C46D8
:1002800001272021304600F079F90028F9D02820F4
:1002900002F0C2F82021304600F070F901280AD09F
:1002A0000720011B384688408543641CE4B2082CB3
:1002B000E7D32846F8BD2021304600F05FF9012839
:1002C000F9D00720011B38468840C0B20543ECE74F
:1002D00030B585B00446FFF7BFFF0925ED060022C3
:1002E0002021284600F04FF9122002F087F8012261
:1002F0002021284600F047F91E2002F08DF820202A
:1003000000900020019002906946284600F07EF897
:100310002021284600F032F900282ED1202128463D
:1003200000F02CF90028F9D02021284600F026F909
:100330000128F9D0FFF79FFF2070FFF79CFF607046
:10034000FFF799FFA070FFF796FFE070FFF793FFAC
:100350002071FFF781FF01222021284600F013F9C8
:1003600020786178E2784018A178891840182179BE
:10037000884202D1012005B030BD0020FBE772B6F3
:10038000FEE730B5014620314B780022022B04D025
:10039000042383630A70012030BD03681C680E25A6
:1003A000AC431C6003681C68640864001C60012383
:1003B000056C1C46C06BAC4044604B700A7000205A
:1003C00030BD70B50024014620314A78022A03D09E
:1003D00004218163012416E0026813680E25AB43F3
:1003E0001360026813685B085B0013600122056CF0
:1003F0001346AB40C56B6B604A7000220A70416BBC
:10040000002900D08847204670BD0000FCB50023BD
:100410000124A1E027462A469F403A4073D04D6808
:10042000012D05D0022D03D0112D01D0122D16D192
:1004300085680326AC465D00AE46AE406546B543D2
:10044000AC46CE687546AE4065462E43866046682B
:100450000D79BE43ED06ED0F9D4035434560C668FE
:100460005F000325BD40AE46AE4335468E68BE40B4
:100470002E43C6604E68022E01D0122E14D1DE0823
:10048000B60036180196366A5D07B446EE0E0F25A3
:10049000B54000966646AE43B4460D69009EB54031
:1004A00066462E43019D2E6206687546AE430D7961
:1004B000AD07AD0FBD40354305604D68ED004AD531
:1004C000284DAE692643AE61AD699E08ED07ED0F7C
:1004D0000095254DB6007519AC46AD689E07360FE0
:1004E0000F27B740BD430927FF06B84201D10027B7
:1004F00010E01E4FB84201D101270BE01C4FB8425B
:1005000002D1022706E026E01A4FB84201D10327A4
:1005100000E00527B7402F436546AF60164E3568AB
:100520004F689543FF0300D51543356075684F68E4
:100530009543BF0300D515437560B5684F68954373
:10054000FF0200D51543B560F5684F689543BF02BB
:1005500000D51543F5605B1C0A681546DA4000D0EB
:1005600058E7FCBD001002400000014000040048B4
:1005700000080048000C00480004014000690840E1
:1005800000D001207047002A01D08161704781624C
:10059000704700000148806870470000100000208C
:1005A0000248816802788918816070471000002035
:1005B00010B506480168102211430160002000F0C8
:1005C00007F800F027F8002010BD000000200240CE
:1005D00070B504460D4D7D202978C000FFF782FDDF
:1005E00001460B480068FFF77DFD00F04FFB002837
:1005F00009D1042C07D200222146401E00F02AF81F
:1006000000206C6070BD012070BD00001000002053
:100610001C00002008B5084881690122114381614E
:10062000816911400091C26901040A43C261C06935
:100630000840009008BD000000100240002805DBC3
:10064000C106C90E012088400149086070470000BA
:1006500000E100E010B501F025FC10BDF8B505463D
:100660000068354CC00352D5E0690026C00007D4AD
:10067000E16920040143E161E16901400126009143
:100680002E480168C90510D4016882151143016024
:10069000FFF780FF074604E0FFF77CFFC01B6428DC
:1006A00024D826480068C005F6D5206A03273F02F3
:1006B000384020D06968394081421CD0206A226AC3
:1006C000B843012109040A432262226A8A43226252
:1006D0002062C0070FD0FFF75DFF009008E0FFF732
:1006E00059FF0099411A1648814201D90320F8BDEB
:1006F000206A8007F3D5206A6968B84308432062FE
:10070000002E04D0E169012000078143E1612878CF
:10071000C00705D0206BA9688008800008432063CB
:100720002878800605D5206B10218843E9680843A6
:1007300020630020F8BD000000100240007000405F
:1007400088130000F8B50F46060059D03A4D2868C6
:10075000C007C00FB84209D228684008400038439B
:1007600028602868C007C00FB84249D13068334CB0
:1007700081070CD5400704D56068072109020843AA
:1007800060606068F0218843B16808436060307839
:10079000C00726D0706801280ED0216802280ED02C
:1007A000890700292CDA61688908890001436160A2
:1007B000FFF7F0FE00900DE021688903F1E7890161
:1007C000EFE7FFF7E7FE0099411A1D48814201D982
:1007D0000320F8BD60680C210840716889008842D8
:1007E000EFD12868C007C00FB8420BD9286840086D
:1007F0004000384328602868C007C00FB84201D0C5
:100800000120F8BD3078400706D56068072109024D
:100810008843F1680843606000F028F86168094A7D
:100820000906090F515CC840074908600020FFF71E
:10083000CFFE0020F8BD0000002002400010024062
:1008400088130000882800081C000020044805497F
:1008500000684968044A4905490F515CC84070471F
:100860001C000020001002409828000810B514A3B6
:100870000FCB88B06C460FC415A30FCB0FC4184A1A
:1008800051680C200B4603401648042B16D0082B49
:1008900014D18B021B0F6C46E45CD26A04AB1207C6
:1008A000120F9A5CC90305D500231946FFF744FCD3
:1008B000214601E020460C4901F0CEFA08B010BDF7
:1008C00002030405060708090A0B0C0D0E0F101091
:1008D0000102030405060708090A0B0C0D0E0F1090
:1008E0000010024000127A0000093D00FEB504002D
:1008F00070D02078DC4DC0074AD068680007800FB0
:10090000012807D068680007800F022809D16868AD
:10091000C00306D5286880033AD560680028E7D070
:1009200036E06168012914D001208004002901D03B
:10093000052914D02A68012109048A432A602968FC
:10094000814329606068002816D0FFF723FE064621
:100950000EE028680121090408432860F2E72968AD
:1009600001432960F5E7FFF715FE801B64286ED868
:1009700028688003F7D50BE0FFF70CFE064604E07D
:10098000FFF708FE801B6428F1D828688003F7D49D
:1009900020780126800700283CDA68680007800F6D
:1009A00007D068680007800F022809D16868C00373
:1009B00006D42868800716D5E06801280AD112E01D
:1009C000E0680028286816D030432860FFF7E2FD71
:1009D000074605E043E1FFF7DDFDC01B0228C6D84E
:1009E00028688007F7D52868F82188432169C9005D
:1009F000084328600EE0400840002860FFF7CAFD69
:100A0000074604E0FFF7C6FDC01B0228AFD82868E0
:100A10008007F7D42078000722D5E0690028686AAB
:100A20000ED030436862FFF7B5FD074604E0FFF7DC
:100A3000B1FDC01B02289AD8686A8007F7D50FE07D
:100A4000400840006862FFF7A5FD074605E09DE00D
:100A5000FFF7A0FDC01B022889D8686A8007F7D479
:100A6000207804274007002860DA00200190E86918
:100A7000C00008D4E969B8060143E961E9690140A9
:100A800001200091019079480168C90511D40168DD
:100A9000821511430160FFF77DFD009005E0FFF72F
:100AA00079FD0099401A642870D870480068C00524
:100AB000F5D5A06801280AD0002801D0052810D05B
:100AC000286A400840002862286AB84301E0286A82
:100AD00030432862A068002812D0FFF75BFD009029
:100AE0000AE0286A38432862F1E7FFF753FD0099CE
:100AF000411A5F48814249D8286A8007F5D50DE040
:100B0000FFF748FD009006E0FFF744FD0099411A09
:100B1000574881423AD8286A8007F5D401980028BE
:100B200004D0E969012000078143E9612078C0060B
:100B300035D5606901280CD0401D686B23D038433F
:100B40006863686B400840006863FFF723FD064652
:100B500022E0686B38436863686B30436863FFF773
:100B600019FD064604E0FFF715FD801B02285BD83F
:100B7000686B8007F7D5686BF8218843A169C900C5
:100B8000084368630BE0B8436863F4E74CE0FFF7A1
:100B900001FD801B022847D8686B8007F7D4206AC4
:100BA00000285ED069680907890F022942D0012612
:100BB00036060228286805D0B0432860FFF7EAFC13
:100BC000044633E0B0432860FFF7E4FC074604E046
:100BD000FFF7E0FCC01B022826D828688001F7D464
:100BE000E86AE16A000900010843E862616AA06AF4
:100BF000084369683D2212049143084368602868ED
:100C000030432860FFF7C6FC044604E0FFF7C2FC4F
:100C1000001B022808D828688001F7D521E0FFF7DB
:100C2000B9FC001B022801D90320FEBD2868800101
:100C3000F5D416E00128F8D06868E96A01221204A8
:100C4000636A02409A420AD10907E26A090F914297
:100C500005D10F2189040840A16A884201D00120F2
:100C6000FEBD0020FEBD00000010024000700040EC
:100C700088130000042204490428086902D0904324
:100C8000086170471043FBE700E000E0094910B538
:100C9000401E884201D9012010BD074C606103212C
:100CA000081F01F0FFF80020A0610720206100204C
:100CB00010BD0000FFFFFF0000E000E0704770473C
:100CC000F8B502680446D069116896687B4B054602
:100CD0001D402023002D6CD0F707794DFF0FBC4637
:100CE0000D402F4379D02546C7078035002F06D009
:100CF000CF0504D5012717622A683A432A60820784
:100D000008D5F20706D0276802223A622A6804272B
:100D10003A432A60420708D5F20706D02668042223
:100D200032622A68022632432A6002070AD50A463E
:100D30001A406646324305D02668082232622E6881
:100D400016432E60020508D54A0106D50122266801
:100D5000D20232622A681A432A602A68002A30D0F6
:100D6000800606D5880604D5616E002901D020468C
:100D70008847286821688968490602D428210842E2
:100D800025D0204600F01EFD20688168490619D54F
:100D9000826840218A438260206F002812D049492E
:100DA0004163206FFFF70DFB00280AD0206F416BD5
:100DB00006E0850611D58D060FD5616E6BE02046E5
:100DC0008847F8BD2046FFF77AFFF8BD05E02046CA
:100DD000FFF775FF00202860F7E7256E012D55D13C
:100DE000C50653D5CD0651D51026166220688168F8
:100DF000254649064035002929DA226F11684968DD
:100E00000904090CE1D02F8B8F42DED969839169E7
:100E1000202917D001683201914301602068816860
:100E20004908490081602068826840218A438260C5
:100E3000E3670020206620680168B1430160206FED
:100E4000FFF79FFA288B698B401A81B21AE0298B31
:100E50006A8B891A6A8B89B2002AB6D00029B4D06D
:100E60000268FF252135AA43026020688268520883
:100E700052008260E3670020206660662068026896
:100E8000B24302602046FFF719FF9EE7050605D52D
:100E90000D0603D5A16E002991D196E7400694D5A1
:100EA000480692D52046146840218C43146083671D
:100EB0000021816600F021F987E700000F0800009B
:100EC00020010004B117000810B5040003D0A06F82
:100ED000002802D007E0012010BD00217420015538
:100EE000204600F027F82420A06720680168490800
:100EF00049000160204600F0F5FC0128ECD0606A52
:100F0000002802D0204600F0BBFB20684168012287
:100F1000D202914341602068816808229143816038
:100F200020680168012211430160204600F00EFC98
:100F300010BD000010B586B0044614216846FFF7C6
:100F400055F916492068884226D115488269012141
:100F500089030A43826182690A4005924269C90095
:100F60000A4342614069084005900C20009002202D
:100F7000019000200290032003900120049009209A
:100F80006946C006FFF742FA002201211B20FFF745
:100F900061FB1B20FFF752FB06B010BD003801407B
:100FA0000010024030B5C36F202B24D100290BD094
:100FB000002A09D0012483682403A34206D10369CF
:100FC000002B03D1CB0701D0012030BD0346603395
:100FD0001C7D012C0FD001241C75002303660368BF
:100FE0005C68240204D51C680125AD062C431C60F6
:100FF00000F006FD30BD022030BD000010B50849EC
:10100000044600680968884203D10648007801F068
:1010100077FB012203492046FFF7C4FF10BD000003
:101020005000002004000020FFB50446806F83B00C
:1010300017460D4620285ED1002D0AD0002F08D07B
:10104000A168C001814207D12069002804D1E807C6
:1010500002D0012007B0F0BD204660300090007D36
:10106000012848D0009801210175002080210851F5
:101070002120A067FFF78EFA26464036019037827E
:1010800077820120A1680003814202D120690028F3
:1010900005D02F46002500990020087511E0002793
:1010A000F9E700228021204600F0EAFC002815D153
:1010B000002F15D02168387808857F1C708A401E63
:1010C0007082708A019B002806980090E9D1002266
:1010D0004021204600F0D4FC002808D00320B9E7C6
:1010E00028882168C005C00D0885AD1CE6E72020D2
:1010F000A0670020AEE70220ACE77047FEE70000E3
:10110000F0B587B014216846FFF770F827484269A8
:10111000012189050A43426142690A4005924269F8
:1011200049110A43426142690A40059242694900F5
:101130000A434261406909260840F60605900122EB
:1011400020213046FFF71FFA0022C0213046FFF76A
:101150001AFA174F002202213846FFF714FA03202B
:10116000002401256A4631C269463046FFF74EF930
:10117000202000901120019002946946039430468B
:10118000FFF744F9C020009002946946019503944A
:101190003046FFF73BF90220009002946946019522
:1011A00003943846FFF732F907B0F0BD0010024053
:1011B0000004004810B50C480A490160E1214902C9
:1011C000416000218160C16001618161C1610C22C7
:1011D000016242614162FFF777FE002801D0FFF70C
:1011E000CEF810BD0038014050000020FEE77047E7
:1011F000F8B507460A48154600780E46002801D182
:1012000000F096FCEFF31084012080F310882A464A
:101210003146384600F006F8E1B281F31088F8BD97
:10122000D400002070B50E461821484313491446D7
:101230004518E86A1835002804D001280FD0022884
:1012400005D113E0284600F0A9FCA04201D20024F9
:1012500011E022463146284600F0CBFD0BE028463F
:1012600000F09CFCA042F4D20446F2E73146284646
:1012700000F08FFD0446204670BD0000D400002021
:101280000FB408B504A900916A46039900F004F868
:1012900001B008BC04B01847F7B598B007A8029091
:1012A000402000250495039018980C46059506905B
:1012B0002178641C002977D0252907D002A800F0E6
:1012C00049FD05980028F3DA1BB0F0BD012200218A
:1012D000022713460826207823281BD02B2816D057
:1012E0002D2802D0302806D101E0194300E039430F
:1012F000641C002AEFD1002220780346303B0A2BE1
:101300000AD20A235A431218303A641CF4E7042024
:101310000143EDE73143EBE70023C7B22E2F0AD19B
:10132000641C20780746303F0A2F04D20A277B43EB
:101330001B18303BF4E76C280DD068280BD07028C0
:1013400052D00BDC25285AD058282ED063280CD038
:10135000642858D110E06078641CECE7732832D020
:10136000752817D078284ED11FE01A981A9A00686D
:10137000011D1160017843E01A981A9F0068061D4C
:101380003E6000680191009201460A2202A800F026
:1013900010FC38E01A981A9F0068061D3E6000682D
:1013A000009201910A2209E02FE01A981A9F006822
:1013B000061D3E600068009201911022014602A8BD
:1013C00000F05CFC1FE01A981A9A0068011D116079
:1013D00006683178761C002915D002A800F0BAFC06
:1013E00005980028F5DA0EE01A981A9A0068082382
:1013F000011D11600168102200960195DFE725218B
:1014000002A800F0A7FC641C5BE70598002800DC3C
:101410005AE70498002804D0024607A91898FFF755
:10142000E7FE04990598401805904DE7704710B500
:10143000FFF7B6F810BD70B594B030216846FEF7DE
:10144000D5FE002401250E94280413940F940990CE
:101450000D941094009500010C94129402260195AD
:101460000A90119408960B946846FFF73FFA0028FB
:1014700001D072B6FEE707200C900E9401210D9664
:101480000F940CA8FFF75EF9002801D072B6FEE7B2
:1014900010A810951294FFF7E1F8002801D072B659
:1014A000FEE714B070BD704710B500F021F800F0F1
:1014B00007F8FF20F53000F0A1FF002010BD00006C
:1014C00010B50020094954220A54401C0628FBDBB1
:1014D000064800F03FF87D20C00000F08FFF00209C
:1014E00001F000F9014800F035F810BD200000209F
:1014F00010B5164886B04269012149040A43426189
:10150000406909240840059038200090012001908E
:1015100002900020E406039069462046FEF776FF1D
:10152000012240212046FFF72EF80122802120468B
:10153000FFF729F8012202210548FFF724F80A20C5
:1015400000F05CFF002006B010BD0000001002405B
:10155000000400487CB5064600246D46305D00F06E
:1015600093FE2855641C062CF8DB69464A788020D7
:1015700002434A700A7902430A710221002000F0F6
:101580001DF80021012000F019F80021032000F0CF
:1015900015F80024285D00F04FF8002000F04CF80A
:1015A000641C062CF6DB092001228021C006FEF710
:1015B000EAFF0121022000F001F87CBD70B50D4664
:1015C00001001C4811D06C07640F01291AD00229B0
:1015D00020D0032908D100228021FEF7D4FF28075C
:1015E000000FC03000F028F870BD002280210446B2
:1015F000FEF7C9FFA807800F00F01EF80122802126
:10160000204613E0002280210546FEF7BCFF20465D
:10161000403006E0002280210546FEF7B4FF204658
:10162000883000F009F8012280212846FEF7ABFF40
:1016300070BD000000000048F8B5002409270F4ED7
:101640000546FF06002202213046FEF79CFFE80710
:1016500001D0012200E0002240213846FEF793FF2E
:101660006D08012000F0CAFE012202213046FEF77B
:101670008AFF641C082CE5DB0020F8BD000400484C
:1016800010B5818CC90707D001684A6801235B0443
:101690009A43836A1A434A60818C890707D5016897
:1016A0004A6801231B049A43C36A1A434A60818C27
:1016B000490707D501684A6801239B049A43036BD5
:1016C0001A434A60818C090707D501684A680123DB
:1016D000DB039A43436B1A434A60818CC90607D5E2
:1016E0000268916801231B039943836B194391603E
:1016F000818C890607D501688A6801235B039A43B8
:10170000C36B1A438A60818C490612D503685A68F4
:1017100001210905046C8A4322435A60026C8A4203
:1017200007D10268516803235B059943436C194351
:101730005160818C090607D501684A680123DB04E2
:10174000806C9A4302434A6010BD0000F8B504461D
:10175000002680300660FEF71DFF05462068006801
:10176000124F000709D501212B46002249052046CA
:10177000009700F085F900280DD120680068400727
:101780000BD501212B46002289052046009700F049
:1017900077F9002801D00320F8BD2020A067E0677A
:1017A0002666603426750020F8BD0000FFFFFF01AB
:1017B00010B5406A0022014640314A834A82FFF751
:1017C0007EFA10BD01680A68FF2321339A430A603C
:1017D00001688A68520852008A60016E012904D1AA
:1017E00001680A6810239A430A602021C16700211A
:1017F00001664166704770B504464030828BE36FE6
:101800002168222B04D0886908221043886170BDAA
:10181000898C636D11401980616D891C6165418BF4
:10182000491E4183418B0029F1D121680A68FF23B9
:1018300021339A430A6021688A68520852008A60FC
:101840002021E16700256566216E012904D020462C
:10185000FFF7D4FB256670BD21680A6810239A4300
:101860000A60018B2046FFF729FAF3E770B50446BA
:101870004030828BE36F2168222B04D088690822D4
:101880001043886170BD898C1140626D1170616D6B
:10189000491C6165418B491E4183418B0029F1D16F
:1018A00021680A68FF2321339A430A6021688A6805
:1018B000520852008A602021E16700256566216E8A
:1018C000012904D02046FFF799FB256670BD2168E9
:1018D0000A6810239A430A60018B2046FFF7EEF94D
:1018E000F3E7000070B5044680682169E2690843A7
:1018F000616900251143084321680A683C4B1A407E
:1019000002430A6021684868032212039043E26898
:1019100010434860A169206A084321688A680B2344
:101920001B029A4302438A603248006B8007800F93
:1019300016D0012818D0022818D0032812D0102160
:101940000120E369C0032C4A2C4E83422BD100298D
:101950000ED002290FD004290FD008293FD110E062
:101960000021EDE70221EBE70421E9E70821E7E7A1
:10197000FEF76CFF03E0104603E0FEF777FF002858
:1019800031D0616840004A088018FEF7ABFB80B296
:1019900001461039B14222D81849491C01400007BC
:1019A000400F08431DE0002906D0022907D0042972
:1019B00007D0082913D108E0FEF748FF03E01046DE
:1019C00003E0FEF753FF00280DD061684A081018A5
:1019D000FEF788FB80B201461039B14201D90125DA
:1019E00001E02168C86000206066A066284670BDDE
:1019F000F369FFFF0010024000127A00EFFF0000C1
:101A000030B54165014640310A834A83002242666F
:101A1000012385681B03FF249D4204D10569002D25
:101A200023D1144C21E0002D1BD08A8380210A5041
:101A30002221C16701688C6801252C438C60816874
:101A4000994202D10169002911D00B4941667421E4
:101A50000A5400680168FF2221321143016000200E
:101A600030BD0569002D00D07F248C83DEE703495B
:101A7000ECE70000FF0100006D180008F7170008F0
:101A8000FFB581B005460F46044660350A9E39E031
:101A9000701C37D0FEF77EFD0499401AB04222D860
:101AA000002E20D02068016849072BD5C069C043AB
:101AB000000527D401202168C0020862206801685F
:101AC000FF22A132914301602068816849084900E2
:101AD00081602020A067E0678034206000202875A6
:101AE000032005B0F0BD20680168FF22A1329143B8
:101AF0000160206881684908490081602020A06752
:101B0000E067EBE72068C1693846884305D00021CB
:101B100003988142BCD00020E3E70121F8E70000F0
:101B200010B50248FFF7CCF810BD000050000020AF
:101B300010B5124C03202061606111A0A061204605
:101B4000A830E0610120800220620020A062606273
:101B5000E0620BA121660D4961661021A166206734
:101B6000E06660670AA1E01DFEF74BFB09A1204675
:101B7000FEF747FB2020A07110BD0000D40000201C
:101B80005465726D696E616C000000007C05002078
:101B90005254540053454747455200000269C168FA
:101BA0008A4203D88068401A801800E0501A401E0C
:101BB0007047FFB583B00E4670420D9F0C9C00909D
:101BC000002900DB0846012502E0FEF7A1FA6D1CA2
:101BD00005998842F9DA0698A84200D90546002CF2
:101BE00004D0002E01DB780700D5641EB80702D5AB
:101BF0000698002810D0F8070ED1002C0CD0A54272
:101C00000AD22021641E039800F0A4F80398C0684B
:101C10000028F2DA07B0F0BD0398C0680028F9DBAD
:101C2000002E02DA2D21009E02E0780707D52B2135
:101C3000039800F08FF80398C0680028EADBB80723
:101C4000800F022810D1069800280DD1002C0BD04F
:101C5000A54209D23021641E039800F07BF8039856
:101C6000C0680028F2DAD5E7019700943146069B58
:101C7000059A039800F002F8CCE70000FFB581B0A8
:101C800001261F4634460A9D029802E0FEF72AFA12
:101C9000641C03998842F9D2A74200D93C460B98AC
:101CA000C00718D1002D16D00B98800701D5002F42
:101CB00002D0202000900CE03020FBE76D1E009940
:101CC000019800F047F80198C06800283DDB002D1E
:101CD00001D0AC42F2D30198C068002835DB012F57
:101CE00001D97F1E06E031460298FEF7FBF9039901
:101CF000884202D303984643F1E7154F31460298D4
:101D0000FEF7F0F90146029A7143511A0291395CCB
:101D1000019800F01FF80198C068002805DB3046E4
:101D20000399FEF7DFF90600E8D10B98C0070CD045
:101D3000002D0AD0AC4208D220216D1E019800F07F
:101D400009F80198C0680028F2DA05B0F0BD00007B
:101D5000A028000810B5044680686368421C9342BE
:101D600005D323681954A260E068401CE060A268B3
:101D70006068824209D121682069FFF739FAA168B9
:101D8000884203D00020C043E06010BD0020A06066
:101D900010BDF7B5064682B000200090F4681746E3
:101DA0003069A04201D9051B02E0B168201A0D1A62
:101DB000B0686D1E001BA84200D80546BD4200D386
:101DC0003D4670682A4600190399FEF7F6F9009817
:101DD0007F1B401900900398641940190390B06864
:101DE000A04200D10024F460002FD9D1009805B0A2
:101DF000F0BDF7B50446C7688068E168C51B606838
:101E000016464018B54205D90199FEF7D6F9B8191A
:101E1000E060FEBD2A460199FEF7CFF90199761BD5
:101E2000606849193246FEF7C8F9E660FEBD000059
:101E30000FB410B504A9074B02AA039800F064F888
:101E4000044602A9002000F007FA204610BC08BC96
:101E500004B0184759220008F8B5040C8BB2264686
:101E600082B25E430D0C1046370C5843360480197D
:101E70000021794116466E43370C360480197941AA
:101E800026466E438919F8BD30B47446641E257821
:101E9000641CAB4200D21D46635D5B00E31830BC9E
:101EA000184700008307FF22DB0E9A408907090EBE
:101EB0009940002808DB830809489B001B18186814
:101EC00090430843186070470007000F08388308E4
:101ED00004489B001B18D86990430843D861704799
:101EE00000E400E000ED00E002E008C8121F08C1B5
:101EF000002AFAD170477047002001E001C1121F8B
:101F0000002AFBD170470000FFB58FB005460026C0
:101F100006E025280AD0129A119990476D1C761C6C
:101F200028780028F5D1304613B0F0BD0024029483
:101F30000121B54A009400E004436D1C2B7808464B
:101F4000203B98401042F7D128782A280ED0022250
:101F5000287801463039092916D802990A235943AD
:101F60003039401814436D1C0290F1E7109802C8F4
:101F700002911090002904DA0120400304434842F2
:101F80000290022004436D1C28782E2817D10420CB
:101F9000044368786D1C2A280CD110986D1C02C867
:101FA000009110900BE000990A22514330394018FB
:101FB0006D1C00902878014630390929F3D928781A
:101FC0006C2810D006DC4C281AD068280ED06A285D
:101FD00017D104E0742813D07A2812D110E0012020
:101FE000400504430CE00121090501E00321090536
:101FF0000C436978814203D10120000524186D1C2F
:102000006D1C2878692874D006DC00288BD06328E2
:1020100027D0642806D16CE06E2808D073282CD015
:10202000752878D0129A11999047761C5FE060026B
:10203000400F022809D003280DD004281098016809
:102040000DD00E60001D109051E01098F21701683D
:102050000E604A60F6E7109801680E80F2E70E7095
:10206000F0E710986A4601781173001D1090002067
:10207000507303A80190012005E0109802C8019157
:1020800010900020C04361070CD5002700E07F1CA2
:1020900000998F420FDA8742F9DB0199C95D002967
:1020A000F5D108E0002700E07F1C8742FCDB0199A6
:1020B000C95D0029F8D102982146C01B0290129BED
:1020C000119A00F0B3F88019C61907E00198019938
:1020D0000078491C0191129A119990477F1EF5D200
:1020E0002146129B119A029800F090F886196D1CF7
:1020F00016E70A200190109901C910916102490F59
:10210000032900D100B2042900D140B2002803DA2B
:1021100040422D2103E00DE0210504D52B216A4624
:102120001173012103E0E10711D02021F7E70CAF83
:102130000C9114E00A200190109901C910916102DC
:10214000490F032900D180B2042900D1C0B2002177
:10215000EDE70199FDF7C6FF30317F1E3970002889
:10216000F7D104A8C01B20300190600704D50120DE
:1021700000048443009801E0012000900199884206
:1021800001DD401A00E00020411800900C98091869
:102190000298401A0290E00306D42146129B119A3D
:1021A000029800F043F8861900200D9008E003A97A
:1021B000085C129A119990470D98401C761C0D905E
:1021C0000C998842F3DBE0030CD52146129B119A4F
:1021D000029800F02BF8861904E0129A3020119929
:1021E0009047761C0099481E00900029F5DC05E018
:1021F0003878129A7F1C11999047761C0199481ED5
:1022000001900029F4DC6BE709280100F8B50446C9
:1022100000251E461746880404D405E039462020D0
:10222000B0476D1C641EF9D52846F8BDFFB50446BD
:10223000002581B01E46C80301D5302700E02027C5
:10224000880404D505E038460399B0476D1C641E28
:10225000F9D5284605B0F0BD0A68531C0B60107014
:102260007047000010B5074CA078E17841180120B4
:1022700000F054F9207861784118022000F04EF9FE
:1022800010BD00000500002010B5134A04461318C5
:102290000021303C403B092C01D8197C19E0044650
:1022A000413C052C01D8597A13E0502808D0552814
:1022B00008D0482808D04C2808D0542808D008E076
:1022C000117C06E0517C04E0917C02E0D17C00E0CE
:1022D000117D084610BD000026000020F1B586B033
:1022E0003E4906980D18E87801263D4C0300FFF79B
:1022F000CBFD0F091A1E222A2C2E1C6D1C1C1C1C27
:102300001C701C0021780020002906D0012100F05B
:10231000CDF9C2B20321002012E0002100F0C6F97D
:10232000C2B22670F6E700F04FF907B0F0BD002208
:102330000321022004E0A879E0700321002208466E
:1023400000F072FAF1E76670EFE7A670EDE7287922
:10235000070268790743002635E0069881191F486F
:102360000818017A407A0902401880B2AC1903902B
:10237000A0790090E0790290207A617A0002081832
:1023800080B204900098A41D019000F06EF8002126
:1023900007E0144A4B00D35C019A934203D0491CD6
:1023A000C9B28142F5D30F48490008184178029814
:1023B000814204D1211D049A009800F047F8039847
:1023C0003018001D86B2BE42C7D3AEE7FFF74AFF02
:1023D000ABE7A879E97900F0D1F9A6E78C050020F0
:1023E00040000020B028000810B504460420FEF785
:1023F00041FC0148046010BD0000002070B50024BD
:102400007D260546F60003E0304600F005F8641C22
:10241000AC42F9D370BD000070B50A4C0023656969
:102420000949A26909684843A1699142FCD09142D7
:1024300001D2521A01E06E1AB218D3180A4683422A
:10244000F2D370BD00E000E00000002070470346BA
:1024500010B50020024605E01C78521C2018C0B2BE
:1024600092B25B1C8A42F7D310BD02207047000075
:102470001CB5FEF79DF8FEF7DEFFFEF741FEFEF706
:1024800099FE00F065F901221C491D48FEF78AFDFE
:102490003020FFF7A9FFFFF707F8184C09257D2624
:1024A000ED06641C360100F06BF91448401CFDF782
:1024B0000FFF01212846FEF761F800280BD10A2002
:1024C000FFF79CFF01212846FEF758F8002802D1AB
:1024D0000CA1FEF7D5FE61782078009001910748A5
:1024E000E378A27809A1801DFFF7A2FC0348801DB4
:1024F000FFF730F83046FFF781FFD4E704000020F3
:102500005000002054696D65730D0A002532642562
:1025100031642532642531640000000010B5134A8F
:102520000C46014612780020012A1DD000F0BEF8AA
:10253000022100F0BBF8002100F0B8F8042100F0FF
:10254000B5F8210E00F0B2F82102090E00F0AEF845
:102550002104090E00F0AAF8E1B200F0A7F8024643
:102560000321072000F060F9012010BD4C0000207D
:1025700030B5002808D0002906D0884202D98C182E
:10258000844212D2002305E0002030BDCD5CC5544A
:102590005B1C9BB29342F9D330BD8B18203BDC7F90
:1025A0008318203B521EDC7792B2002AF5D130BD51
:1025B0000021002806D000E0491C0278401C002AB7
:1025C000FAD108467047000010B5002421A0FFF79B
:1025D000EFFF82B21FA1204600F05AF8C4B21FA03C
:1025E000FFF7E6FF82B21DA1204600F051F8C4B209
:1025F0001FA0FFF7DDFF82B21DA1204600F048F8C2
:10260000C4B21DA0FFF7D4FF82B21BA1204600F088
:102610003FF8C4B21AA0FFF7CBFF82B218A1204640
:1026200000F036F8C4B218A0FFF7C2FF82B216A1BC
:10263000204600F02DF8C4B214A0FFF7B9FF82B213
:1026400012A1204600F024F8C2B20321012000F0BC
:10265000EBF810BD7B2270223A2200007935616CC4
:10266000363534786D79616C386B62730000000028
:10267000222C2276223A2200312E302E3000000009
:10268000222C226D223A0000320000007D00000062
:1026900070B50446044815460019801DFFF768FF11
:1026A000601980B270BD0000C2050020024A1218F5
:1026B000401C917180B27047C205002007494B68E9
:1026C0008A689A4208D00648824201D31738886047
:1026D0008A681078521C8A60704700004000002011
:1026E000C205002070B5054D05240A21FDF7FAFC4E
:1026F00030312955641EF8D570BD0000200000203F
:1027000010B50B490B680B490A689C1A012C0DD0B7
:102710009A4202D9D31A172B08D2074B9A4202D3F6
:102720001A46173A0A601070521C0A6010BD000069
:102730004800002044000020C205002001B5FF230E
:10274000012269460148FEF76FFC08BD50000020D9
:1027500006490548086006490860064900200870D7
:102760000549FF2008707047AB0500204400002099
:10277000480000204C00002043000020704700006B
:10278000F8B50024264E274D06E0FFF797FF0146D7
:1027900028883154401C288028881F2803D200F044
:1027A00067F80028F1D12888072838D329E0315D5F
:1027B000552901D0641C07E032195178AA29F9D1B2
:1027C0009178002902D0A41CA4B21AE0117953799F
:1027D0000902C91D59188FB2262F0CD8B84214DB34
:1027E000781E81B21046FFF732FEE719B919203979
:1027F000C97F884201D0E41CE6E72046FFF76EFD62
:10280000BCB22888001B0728D1DA2888001B0204E4
:10281000120C2A8003D031190148FFF7A9FEF8BD38
:102820008C0500203C00002070B5104D55232B7006
:10283000AA236B70A970E870100A28716A71D21D02
:1028400094B2601E81B22846FFF701FE2919203993
:10285000C877002C09D003E02878FFF76FFF6D1CC4
:102860002046641EA4B20028F6D170BDC205002027
:10287000044841688068814201D0012070470020EF
:102880007047000040000020000000000000000031
:102890000102030406070809000000000102030406
:1028A0003031323334353637383941424344454686
:1028B00001020202D428000800000020500000009D
:1028C000E81E00082429000850000020B00900007C
:1028D000F81E000800000000000000000000303179
:1028E0003233343501000000040000000000000015
:1028F00000127A000000000000003F065B4F666D8A
:102900007D077F6F777C395E7971733E7638FF0083
:1029100000000000000000000000000000000000B7
:0429200000000000B3
:04000005080000B13E
:00000001FF
